:020000040000FA
:100000000C9486000C94B0000C94B0000C94B000DA
:100010000C94B0000C94B0000C94B0000C94B000A0
:100020000C94B0000C94B0000C94B0000C94B00090
:100030000C94B0000C94B0000C94B0000C94B00080
:100040000C94B0000C94B0000C94C3020C94B0005B
:100050000C948D020C9463020C94B0000C94B000CC
:100060000C94B0000C94B0000C94B0000C94B00050
:100070000C94B0000C94B0000C94B0000C94B00040
:100080000C94B0000C94B0000C94B000000021005F
:10009000240027002A0000002200250028002B0051
:1000A00000002000230026002900020202020202B2
:1000B000020204040404040404040303030303030A
:1000C00003030101010101010101010204081020E3
:1000D0004080010204081020408001020408102022
:1000E000408080402010080402010000000102004E
:1000F000090A0000000004030807000000000000D7
:1001000000000000000000000000E70411241FBEF2
:10011000CFEFD0E4DEBFCDBF11E0A0E0B1E0EEE371
:10012000FAE000E00BBF02C007900D92A032B107C9
:10013000D9F721E0A0E2B1E001C01D92AA3DB207CB
:10014000E1F710E0C6E8D0E004C02197FE010E946C
:100150001405C538D107C9F70E940D030C941D057D
:100160000C940000AF92BF92CF92DF92EF92FF9279
:100170000F931F93CF93DF936C017B018B01040FCF
:10018000151FEB015E01AE18BF08C017D10759F06B
:100190006991D601ED91FC910190F081E02DC601AD
:1001A0000995892B79F7C501DF91CF911F910F91A7
:1001B000FF90EF90DF90CF90BF90AF900895FC013B
:1001C000538D448D252F30E0842F90E0821B930BBC
:1001D000541710F0CF96089501970895FC01918D62
:1001E000828D981761F0A28DAE0FBF2FB11D5D9665
:1001F0008C91928D9F5F9F73928F90E008958FEF07
:100200009FEF0895FC01918D828D981731F0828DBA
:10021000E80FF11D858D90E008958FEF9FEF089511
:10022000FC01918D228D892F90E0805C9F4F821B75
:1002300091098F739927089589E291E00E94100136
:1002400021E0892B09F420E0822F0895FC01A48D80
:10025000A80FB92FB11DA35ABF4F2C91848D90E0E8
:1002600001968F739927848FA689B7892C93A089CB
:10027000B1898C91837080648C93938D848D981355
:1002800006C00288F389E02D80818F7D80830895E8
:10029000EF92FF920F931F93CF93DF93EC0181E0D6
:1002A000888F9B8D8C8D98131AC0E889F98980817D
:1002B00085FF15C09FB7F894EE89FF896083E889B0
:1002C000F98980818370806480839FBF81E090E0A2
:1002D000DF91CF911F910F91FF90EF900895F62E2F
:1002E0000B8D10E00F5F1F4F0F731127E02E8C8DC9
:1002F0008E110CC00FB607FCFACFE889F98980810E
:1003000085FFF5CFCE010E942601F1CFEB8DEC0FDA
:10031000FD2FF11DE35AFF4FF0829FB7F8940B8F2A
:10032000EA89FB8980818062CFCFCF93DF93EC0194
:10033000888D8823B9F0AA89BB89E889F9898C91CD
:1003400085FD03C0808186FD0DC00FB607FCF7CF89
:100350008C9185FFF2CF808185FFEDCFCE010E9489
:100360002601E9CFDF91CF91089580E090E0892BBD
:1003700029F00E941C0181110E94000080E090E0A1
:10038000892B49F080E090E0892B29F00E94000041
:1003900081110C940000089581508A3080F5E82F77
:1003A000F0E0EB52FE4F0C941405E901ED01DF0182
:1003B000E501FF01FF01F001F601FA010002809161
:1003C00080008F77809380000895809180008F7DDA
:1003D000F9CF84B58F7784BD089584B58F7DFBCF29
:1003E0008091B0008F778093B00008958091B00025
:1003F0008F7DF9CF809190008F7780939000089542
:10040000809190008F7DF9CF1F93CF93DF93282F9A
:1004100030E0F901E651FF4F8491F901E653FF4FB7
:10042000D491F901E655FF4FC491CC23A9F0162FC2
:1004300081110E94CC01EC2FF0E0EE0FFF1FEA5675
:10044000FF4FA591B4918FB7F894EC91111108C0AA
:10045000D095DE23DC938FBFDF91CF911F9108955C
:10046000DE2BF8CFCF93DF9390E0FC01E653FF4FF4
:10047000249186559F4FFC0184918823D1F090E010
:10048000880F991FFC01E457FF4FA591B491FC011F
:10049000EA56FF4FC591D49161110EC09FB7F894F1
:1004A0008C91E22FE0958E238C932881E223E883C0
:1004B0009FBFDF91CF9108958FB7F894EC91E22B15
:1004C000EC938FBFF6CF1F920F920FB60F921124AD
:1004D0000BB60F922F933F934F935F936F937F933E
:1004E0008F939F93AF93BF93EF93FF9389E291E034
:1004F0000E942601FF91EF91BF91AF919F918F9143
:100500007F916F915F914F913F912F910F900BBE13
:100510000F900FBE0F901F9018951F920F920FB65D
:100520000F9211240BB60F922F938F939F93EF93FB
:10053000FF93E0913901F0913A018081E0913F0110
:10054000F091400182FD1DC09081809142018F5F3A
:100550008F7320914301821741F0E0914201F0E056
:10056000E75DFE4F958F80934201FF91EF919F9140
:100570008F912F910F900BBE0F900FBE0F901F9079
:1005800018958081F2CF1F920F920FB60F9211240F
:100590002F933F938F939F93AF93BF9380912501A8
:1005A00090912601A0912701B0912801309120015E
:1005B00023E0230F2D3758F50196A11DB11D20937F
:1005C00020018093250190932601A0932701B093E9
:1005D00028018091210190912201A0912301B091E5
:1005E00024010196A11DB11D809321019093220148
:1005F000A0932301B0932401BF91AF919F918F915C
:100600003F912F910F900FBE0F901F90189526E8E5
:10061000230F0296A11DB11DD2CF789484B58260BC
:1006200084BD84B5816084BD85B5826085BD85B596
:10063000816085BD80916E00816080936E00109214
:10064000810080918100826080938100809181008F
:100650008160809381008091800081608093800020
:100660008091B10084608093B1008091B00081607E
:100670008093B0008091910082608093910080917E
:1006800091008160809391008091900081608093BF
:10069000900080917A00846080937A0080917A0043
:1006A000826080937A0080917A00816080937A00E2
:1006B00080917A00806880937A001092C100E09166
:1006C0003901F0913A0182E08083E0913501F091A7
:1006D00036011082E0913701F09138018FEC808370
:1006E00010924101E0913D01F0913E0186E080834E
:1006F000E0913B01F0913C01808180618083E09139
:100700003B01F0913C01808188608083E0913B0156
:10071000F0913C01808180688083E0913B01F09101
:100720003C0180818F7D808361E085E10E943202FF
:1007300060E082E10E94320261E08FE00E943202BA
:1007400061E08EE00E94320261E087E10E943202A5
:1007500060E083E10E94320261E086E10E943202A1
:1007600061E085E10E94040261E087E10E940402E9
:1007700060E08EE00E940402109201011092D0010C
:100780001092CF01CC24C394CCEFD0E00CED10E05C
:100790005CEBE52E50E0F52E3FB7F89480912101F7
:1007A00090912201A0912301B091240126B5A89B2C
:1007B00005C02F3F19F00196A11DB11D3FBFBA2FF3
:1007C000A92F982F8827820F911DA11DB11D42E0EE
:1007D000880F991FAA1FBB1F4A95D1F78093D60196
:1007E0009093D701A093D801B093D9018FB7F89413
:1007F00040912501509126016091270170912801B7
:100800008FBF8090D6019090D701A090D801B09072
:10081000D9018091D2019091D301A091D401B091DE
:10082000D501A5019401281B390B4A0B5B0BDA019A
:10083000C901893C9105A105B105B0F08092D201B2
:100840009092D301A092D401B092D5018091010180
:1008500081110AC0D090D101D1105AC0C092D101EB
:1008600061E08FE00E9404028091CA019091CB0167
:10087000A091CC01B091CD01A5019401281B390BA9
:100880004A0B5B0BDA01C901893C9105A105B10551
:10089000B0F08092CA019092CB01A092CC01B092AC
:1008A000CD0180910001811171C0D090C901D1109A
:1008B0004EC0C092C90161E086E10E940402FE01BF
:1008C0008491F801B490F701D490DD2081F081117A
:1008D0000E94CC01ED2DF0E0EE0FFF1FE056FF4F20
:1008E000A591B4918C91B82211F0C0920101809130
:1008F000CE01813051F48091C601811158C010920F
:1009000000011092C8011092C7010E94B50144CFA6
:1009100031E0D312A9CF1092D10160E08FE00E94A4
:1009200004028091CF019091D00101969093D00163
:100930008093CF01813A9F4008F496CFD092010175
:100940001092D0011092CF01D092CE018DCF31E024
:10095000D312B5CF1092C90160E086E10E94040273
:100960008091C7019091C80101969093C80180932E
:10097000C701813A9F4008F4A2CFD09200011092A3
:10098000C8011092C701D092C60199CF47E050E04C
:1009900064E171E089E291E00E94B20042E050E03F
:1009A0006CE171E089E291E00E94B20088CF813071
:1009B00009F0ABCF109200011092C8011092C7014C
:1009C000109201011092D0011092CF019ECFE9E266
:1009D000F1E01382128288EE93E0A0E0B0E084831D
:1009E0009583A683B78386E091E09183808385EC2D
:1009F00090E09587848784EC90E09787868780ECE9
:100A000090E0918B808B81EC90E0938B828B82ECD9
:100A100090E0958B848B86EC90E0978B868B118E83
:100A2000128E138E148E0895EE0FFF1F0024001CEB
:100A30000BBE0790F691E02D0994F894FFCF0101C9
:100A4000000000004801B200DF0095011001EE0037
:0E0A5000020179EC8AA4ED8391000D0A0000EA
:10FC00001F92CDB7DEB7112484B714BE81FFDED0BA
:10FC100085E08093810082E08093C00088E180933A
:10FC2000C10086E08093C20080E18093C4008EE032
:10FC3000B8D0209A26E080E39CEF31E090938500D5
:10FC40008093840036BBB09BFECF189AA8952150B4
:10FC5000A9F7A12CB12CEE24E39491E1D92E23E055
:10FC6000F22E93D0813469F490D08983A0D0898119
:10FC7000823809F424C0813809F476C083E07ED04C
:10FC80007AC0823411F484E103C0853419F485E02C
:10FC900096D071C0853579F478D0182F76D0212F81
:10FCA00030E0382B832F881F8827881F8BBF59018E
:10FCB000AA0CBB1C5FC0863521F484E080D080E0B4
:10FCC000DECF843609F03BC060D05FD0C82E5DD057
:10FCD000A11480EEB80618F4F501F7BEE89500E02F
:10FCE00011E053D0F80181938F01CE12FACFA11405
:10FCF000F0EEBF0618F0F501F7BEE89558D007B64C
:10FD000000FCFDCFF501A0E0B1E08C9111962C91A3
:10FD1000119790E0922B12960C01E7BEE895112402
:10FD20003296A11582E0B80781F785E0F50187BF1B
:10FD3000E89507B600FCFDCFD7BEE8951CC0843718
:10FD400061F423D022D0182F20D031D0F501879133
:10FD50005F0114D01150D1F70EC0853739F427D088
:10FD60008EE10CD087E90AD085E089CF813511F486
:10FD700088E017D01CD080E101D073CF9091C000F3
:10FD800095FFFCCF8093C60008958091C00087FF47
:10FD9000FCCF8091C00084FD01C0A8958091C60071
:10FDA0000895E0E6F0E098E1908380830895EDDF28
:10FDB000803219F088E0F5DFFFCF84E1DFCFCF9309
:10FDC000C82FE3DFC150E9F7CF91F1CF282E80E0B3
:08FDD000E8DFEE27FF2709948C
:02FFFE000005FC
:00000001FF
