:100000000C9486000C94B0000C94B0000C94B000DA
:100010000C94B0000C94B0000C94B0000C94B000A0
:100020000C94B0000C94B0000C94B0000C94B00090
:100030000C94B0000C94B0000C94B0000C94B00080
:100040000C94B0000C94B0000C94C3020C94B0005B
:100050000C948D020C9463020C94B0000C94B000CC
:100060000C94B0000C94B0000C94B0000C94B00050
:100070000C94B0000C94B0000C94B0000C94B00040
:100080000C94B0000C94B0000C94B000000021005F
:10009000240027002A0000002200250028002B0051
:1000A00000002000230026002900020202020202B2
:1000B000020204040404040404040303030303030A
:1000C00003030101010101010101010204081020E3
:1000D0004080010204081020408001020408102022
:1000E000408080402010080402010000000102004E
:1000F000090A0000000004030807000000000000D7
:1001000000000000000000000000D00411241FBE09
:10011000CFEFD0E4DEBFCDBF11E0A0E0B1E0E0E181
:10012000FAE000E00BBF02C007900D92A431B107C6
:10013000D9F721E0A4E1B1E001C01D92AF3CB207C4
:10014000E1F710E0C6E8D0E004C02197FE010E946C
:10015000FD04C538D107C9F70E940D030C940605AC
:100160000C940000AF92BF92CF92DF92EF92FF9279
:100170000F931F93CF93DF936C017B018B01040FCF
:10018000151FEB015E01AE18BF08C017D10759F06B
:100190006991D601ED91FC910190F081E02DC601AD
:1001A0000995892B79F7C501DF91CF911F910F91A7
:1001B000FF90EF90DF90CF90BF90AF900895FC013B
:1001C000538D448D252F30E0842F90E0821B930BBC
:1001D000541710F0CF96089501970895FC01918D62
:1001E000828D981761F0A28DAE0FBF2FB11D5D9665
:1001F0008C91928D9F5F9F73928F90E008958FEF07
:100200009FEF0895FC01918D828D981731F0828DBA
:10021000E80FF11D858D90E008958FEF9FEF089511
:10022000FC01918D228D892F90E0805C9F4F821B75
:1002300091098F739927089589E191E00E94100137
:1002400021E0892B09F420E0822F0895FC01A48D80
:10025000A80FB92FB11DA35ABF4F2C91848D90E0E8
:1002600001968F739927848FA689B7892C93A089CB
:10027000B1898C91837080648C93938D848D981355
:1002800006C00288F389E02D80818F7D80830895E8
:10029000EF92FF920F931F93CF93DF93EC0181E0D6
:1002A000888F9B8D8C8D98131AC0E889F98980817D
:1002B00085FF15C09FB7F894EE89FF896083E889B0
:1002C000F98980818370806480839FBF81E090E0A2
:1002D000DF91CF911F910F91FF90EF900895F62E2F
:1002E0000B8D10E00F5F1F4F0F731127E02E8C8DC9
:1002F0008E110CC00FB607FCFACFE889F98980810E
:1003000085FFF5CFCE010E942601F1CFEB8DEC0FDA
:10031000FD2FF11DE35AFF4FF0829FB7F8940B8F2A
:10032000EA89FB8980818062CFCFCF93DF93EC0194
:10033000888D8823B9F0AA89BB89E889F9898C91CD
:1003400085FD03C0808186FD0DC00FB607FCF7CF89
:100350008C9185FFF2CF808185FFEDCFCE010E9489
:100360002601E9CFDF91CF91089580E090E0892BBD
:1003700029F00E941C0181110E94000080E090E0A1
:10038000892B49F080E090E0892B29F00E94000041
:1003900081110C940000089581508A3080F5E82F77
:1003A000F0E0EB52FE4F0C94FD04E901ED01DF019A
:1003B000E501FF01FF01F001F601FA010002809161
:1003C00080008F77809380000895809180008F7DDA
:1003D000F9CF84B58F7784BD089584B58F7DFBCF29
:1003E0008091B0008F778093B00008958091B00025
:1003F0008F7DF9CF809190008F7780939000089542
:10040000809190008F7DF9CF1F93CF93DF93282F9A
:1004100030E0F901E651FF4F8491F901E653FF4FB7
:10042000D491F901E655FF4FC491CC23A9F0162FC2
:1004300081110E94CC01EC2FF0E0EE0FFF1FEA5675
:10044000FF4FA591B4918FB7F894EC91111108C0AA
:10045000D095DE23DC938FBFDF91CF911F9108955C
:10046000DE2BF8CFCF93DF9390E0FC01E653FF4FF4
:10047000249186559F4FFC0184918823D1F090E010
:10048000880F991FFC01E457FF4FA591B491FC011F
:10049000EA56FF4FC591D49161110EC09FB7F894F1
:1004A0008C91E22FE0958E238C932881E223E883C0
:1004B0009FBFDF91CF9108958FB7F894EC91E22B15
:1004C000EC938FBFF6CF1F920F920FB60F921124AD
:1004D0000BB60F922F933F934F935F936F937F933E
:1004E0008F939F93AF93BF93EF93FF9389E191E035
:1004F0000E942601FF91EF91BF91AF919F918F9143
:100500007F916F915F914F913F912F910F900BBE13
:100510000F900FBE0F901F9018951F920F920FB65D
:100520000F9211240BB60F922F938F939F93EF93FB
:10053000FF93E0912901F0912A018081E0912F0140
:10054000F091300182FD1DC09081809132018F5F5A
:100550008F7320913301821741F0E0913201F0E076
:10056000E75EFE4F958F80933201FF91EF919F914F
:100570008F912F910F900BBE0F900FBE0F901F9079
:1005800018958081F2CF1F920F920FB60F9211240F
:100590002F933F938F939F93AF93BF9380911501B8
:1005A00090911601A0911701B0911801309114019A
:1005B00023E0230F2D3758F50196A11DB11D20937F
:1005C00014018093150190931601A0931701B09325
:1005D00018018091B6019091B701A091B801B09136
:1005E000B9010196A11DB11D8093B6019093B70189
:1005F000A093B801B093B901BF91AF919F918F9132
:100600003F912F910F900FBE0F901F90189526E8E5
:10061000230F0296A11DB11DD2CF789484B58260BC
:1006200084BD84B5816084BD85B5826085BD85B596
:10063000816085BD80916E00816080936E00109214
:10064000810080918100826080938100809181008F
:100650008160809381008091800081608093800020
:100660008091B10084608093B1008091B00081607E
:100670008093B0008091910082608093910080917E
:1006800091008160809391008091900081608093BF
:10069000900080917A00846080937A0080917A0043
:1006A000826080937A0080917A00816080937A00E2
:1006B00080917A00806880937A001092C100E09166
:1006C0002901F0912A0182E08083E0912501F091D7
:1006D00026011082E0912701F09128018FEC8083A0
:1006E00010923101E0912D01F0912E0186E080837E
:1006F000E0912B01F0912C01808180618083E09159
:100700002B01F0912C01808188608083E0912B0186
:10071000F0912C01808180688083E0912B01F09121
:100720002C0180818F7D808361E085E10E9432020F
:1007300060E082E10E94320261E08FE00E943202BA
:1007400061E08EE00E94320261E087E10E943202A5
:1007500060E083E10E94320261E086E10E943202A1
:1007600061E085E10E94040261E087E10E940402E9
:1007700060E08EE00E9404021092C6011092C40153
:100780001092C30199249394CCEFD0E00CED10E0CB
:100790003CEBA32E30E0B32E9FB7F894C090B60187
:1007A000D090B701E090B801F090B90186B5A89B50
:1007B00007C08F3F29F02FEFC21AD20AE20AF20ACD
:1007C0009FBFFE2CED2CDC2CCC24C80ED11CE11CD0
:1007D000F11C22E0CC0CDD1CEE1CFF1C2A95D1F78D
:1007E000C092CB01D092CC01E092CD01F092CE012B
:1007F0008091C7019091C801A091C901B091CA012F
:10080000A7019601281B390B4A0B5B0BDA01C901C2
:10081000893C9105A105B105B0F0C092C701D09205
:10082000C801E092C901F092CA018091C60181110C
:100830000AC08090C50181105BC09092C50161E043
:100840008FE00E9404028091BE019091BF01A091AF
:10085000C001B091C101A7019601281B390B4A0BB9
:100860005B0BDA01C901893C9105A105B105B0F026
:10087000C092BE01D092BF01E092C001F092C101CE
:100880008091000181110AC0F090BD01F1104FC0AC
:100890009092BD0161E086E10E940402FE01849114
:1008A000F801E490F501F490FF2081F081110E949D
:1008B000CC01EF2DF0E0EE0FFF1FE056FF4FA591AA
:1008C000B4918C91E82211F09092C6018091C201FE
:1008D000813059F480910001813009F047C01092B5
:1008E00000011092BC011092BB010E94B50154CFCF
:1008F00031E08312A8CF1092C50160E08FE00E9422
:1009000004028091C3019091C40101969093C401A7
:100910008093C30181389C4008F495CF8092C60132
:100920001092C4011092C3018092C2018CCF31E0B9
:10093000F312B4CF1092BD0160E086E10E94040280
:100940008091BB019091BC0101969093BC01809372
:10095000BB018134964008F4A1CFF09200011092BF
:10096000BC011092BB01F092BA0198CF8091BA01FC
:10097000813009F0BACF60E087E10E94040260E0B4
:1009800085E10E940402109200011092BC011092B5
:10099000BB011092C6011092C4011092C301A5CFF1
:1009A000E9E1F1E01382128288EE93E0A0E0B0E08A
:1009B00084839583A683B78385E091E091838083C8
:1009C00085EC90E09587848784EC90E09787868714
:1009D00080EC90E0918B808B81EC90E0938B828B0C
:1009E00082EC90E0958B848B86EC90E0978B868BE5
:1009F000118E128E138E148E0895EE0FFF1F002499
:100A0000001C0BBE0790F691E02D0994F894FFCFDF
:100A100001000000004801B200DF0095011001EE66
:040A200000020100CF
:00000001FF
