:100000000C9481000C94AB000C94AB000C94AB00EE
:100010000C94AB000C94AB000C94AB000C94AB00B4
:100020000C94AB000C94AB000C94AB000C94AB00A4
:100030000C94AB000C946B030C94AB000C94AB00D1
:100040000C94AB000C94AB000C9468020C94AB00C5
:100050000C94DC020C94B2020C94AB000C94AB0038
:100060000C94AB000C94AB000C94AB000C94AB0064
:100070000C94AB000C94AB000C94AB000C94AB0054
:100080000C9412030C94AB000C94AB000000000124
:100090000200090A00000000040308070000000035
:1000A000000000000000000000000000000022002E
:1000B000250028002B0000002100240027002A0032
:1000C0000202020202020202040404040404040400
:1000D0000303030303030303010101010101010100
:1000E0000102040810204080010204081020408012
:1000F0000102040810204080804020100804020102
:100100001A0511241FBECFEFD0E4DEBFCDBF11E032
:10011000A0E0B1E0E4EAFAE000E00BBF02C0079023
:100120000D92A431B107D9F721E0A4E1B1E001C0FB
:100130001D92A73CB207E1F710E0C1E8D0E004C08F
:100140002197FE010E944705C038D107C9F70E94D8
:10015000C4030C9450050C94000090E0FC01E052A4
:10016000FF4F249180549F4FFC018491882399F084
:1001700090E0880F991FFC01EA54FF4FA591B491BC
:10018000FC01E455FF4F859194918FB7F894EC9161
:10019000E22BEC938FBF0895AF92BF92CF92DF9284
:1001A000EF92FF920F931F93CF93DF936C017B012C
:1001B0008B01040F151FEB015E01AE18BF08C017BD
:1001C000D10759F06991D601ED91FC910190F08130
:1001D000E02DC6010995892B79F7C501DF91CF91F3
:1001E0001F910F91FF90EF90DF90CF90BF90AF9055
:1001F0000895FC01538D448D252F30E0842F90E02D
:10020000821B930B541710F0CF9608950197089511
:10021000FC01918D828D981761F0A28DAE0FBF2FDA
:10022000B11D5D968C91928D9F5F9F73928F90E030
:1002300008958FEF9FEF0895FC01918D828D98179F
:1002400031F0828DE80FF11D858D90E008958FEFDC
:100250009FEF0895FC01918D228D892F90E0805CA5
:100260009F4F821B91098F73992708958CE191E02C
:100270000E942A0121E0892B09F420E0822F0895B1
:10028000FC01A48DA80FB92FB11DA35ABF4F2C910B
:10029000848D90E001968F739927848FA689B78902
:1002A0002C93A089B1898C91837080648C93938DF9
:1002B000848D981306C00288F389E02D80818F7D9C
:1002C00080830895EF92FF920F931F93CF93DF9354
:1002D000EC0181E0888F9B8D8C8D98131AC0E88982
:1002E000F989808185FF15C09FB7F894EE89FF8951
:1002F0006083E889F98980818370806480839FBFEF
:1003000081E090E0DF91CF911F910F91FF90EF90EE
:100310000895F62E0B8D10E00F5F1F4F0F731127FE
:10032000E02E8C8D8E110CC00FB607FCFACFE88939
:10033000F989808185FFF5CFCE010E944001F1CF80
:10034000EB8DEC0FFD2FF11DE35AFF4FF0829FB7AD
:10035000F8940B8FEA89FB8980818062CFCFCF939D
:10036000DF93EC01888D8823B9F0AA89BB89E889DD
:10037000F9898C9185FD03C0808186FD0DC00FB683
:1003800007FCF7CF8C9185FFF2CF808185FFEDCF01
:10039000CE010E944001E9CFDF91CF91089580E026
:1003A00090E0892B29F00E94360181110E94000003
:1003B00080E090E0892B49F080E090E0892B29F0E3
:1003C0000E94000081110C940000089590E0FC014F
:1003D000E457FF4F2491FC01E052FF4F34918054C9
:1003E0009F4FFC018491882359F12223C1F02150B1
:1003F0002A30A8F4E22FF0E0E050FE4F0C944705BD
:10040000250229020A0221020F020F022C023202E7
:1004100036023C02909180009F7790938000E82FF5
:10042000F0E0EE0FFF1FE455FF4FA591B4918FB799
:10043000F894EC91611124C030953E233C938FBF1A
:100440000895909180009F7DE8CF94B59F7794BDEB
:10045000E6CF94B59F7DFBCF9091B0009F779093AE
:10046000B000DDCF9091B0009F7DF9CF90919000CA
:100470009F7790939000D3CF909190009F7DF9CF7C
:100480003E2BDCCF813039F410929500109294000D
:1004900092E090936F00613039F4109295001092C1
:1004A000940092E0909371008093170160931B0178
:1004B000089561E0882319F0813021F460E085E13E
:1004C0000C94E60160E0823009F061E087E1F8CF4A
:1004D0001F920F920FB60F9211242F933F938F9379
:1004E0009F93AF93BF938091C3019091C401A0915A
:1004F000C501B091C6013091C20123E0230F2D3711
:1005000058F50196A11DB11D2093C2018093C3012E
:100510009093C401A093C501B093C6018091BE0120
:100520009091BF01A091C001B091C1010196A11DA0
:10053000B11D8093BE019093BF01A093C001B09301
:10054000C101BF91AF919F918F913F912F910F90DA
:100550000FBE0F901F90189526E8230F0296A11D3D
:10056000B11DD2CF1F920F920FB60F9211240BB66E
:100570000F922F933F934F935F936F937F938F933C
:100580009F93AF93BF93EF93FF938CE191E00E9411
:100590004001FF91EF91BF91AF919F918F917F911A
:1005A0006F915F914F913F912F910F900BBE0F90E4
:1005B0000FBE0F901F9018951F920F920FB60F92BB
:1005C00011240BB60F922F938F939F93EF93FF936A
:1005D000E0912C01F0912D018081E0913201F091A8
:1005E000330182FD1DC09081809135018F5F8F7333
:1005F00020913601821741F0E0913501F0E0E45E90
:10060000FE4F958F80933501FF91EF919F918F91D0
:100610002F910F900BBE0F900FBE0F901F9018954B
:100620008081F2CF1F920F920FB60F9211240BB65A
:100630000F922F933F934F935F936F937F938F937B
:100640009F93AF93BF93CF93EF93FF93C0911B0101
:10065000C13051F480911A0181111AC061E086E124
:100660000E94E601C0931A01FF91EF91CF91BF91D3
:10067000AF919F918F917F916F915F914F913F913A
:100680002F910F900BBE0F900FBE0F901F901895DB
:1006900010921A018091180190911901019690937E
:1006A0001901809318012091BB013091BC0160E0D9
:1006B0002817390764F486E10E94E60110921B01B5
:1006C000C09300011092190110921801CDCF86E15C
:1006D0000E94E601C9CF1F920F920FB60F9211240C
:1006E0000BB60F922F933F934F935F936F937F932C
:1006F0008F939F93AF93BF93CF93EF93FF93C0914B
:100700001701C13051F48091160181111AC061E0C6
:100710008FE00E94E601C0931601FF91EF91CF9107
:10072000BF91AF919F918F917F916F915F914F9109
:100730003F912F910F900BBE0F900FBE0F901F9007
:10074000189510921601809114019091150101964F
:1007500090931501809314012091B9013091BA0151
:1007600060E02817390764F48FE00E94E6011092D8
:100770001701C09301011092150110921401CDCF01
:100780008FE00E94E601C9CF789484B5826084BD71
:1007900084B5816084BD85B5826085BD85B5816085
:1007A00085BD80916E00816080936E001092810003
:1007B00080918100826080938100809181008160BE
:1007C000809381008091800081608093800080917F
:1007D000B10084608093B1008091B000816080930B
:1007E000B00080919100826080939100809191008F
:1007F000816080939100809190008160809390004F
:1008000080917A00846080937A0080917A0082607F
:1008100080937A0080917A00816080937A00809141
:100820007A00806880937A001092C100E0912C01D8
:10083000F0912D01C2E0C083E0912801F0912901DF
:100840001082E0912A01F0912B018FEC80831092AD
:100850003401E0913001F091310186E08083E09134
:100860002E01F0912F01808180618083E0912E0123
:10087000F0912F01808188608083E0912E01F091BA
:100880002F01808180688083E0912E01F0912F01FB
:1008900080818F7D808385E10E94AD008FE00E9482
:1008A000AD008EE00E94AD0087E10E94AD0086E1C0
:1008B0000E94AD0060E08EE00E94E6011092800090
:1008C0008AE080938100109282001092850010923D
:1008D0008400C0936F00109290008093910010925A
:1008E00092001092950010929400C093710081E0E4
:1008F0008093BD0180EA96EF9093BC018093BB0189
:1009000010929900109298001092000183E00E94CA
:10091000590261E080E00E94420280EAE82E8FE006
:10092000F82E90E9C92EDD24D394C0E6D9E02AE957
:10093000A22E22E0B22E03E08091BD01813059F554
:1009400080910101813011F410926F0080910101BA
:10095000813011F410926F00809101018130C1F457
:10096000809100018130A1F4D093BC01C093BB0100
:1009700010929900109298001092000182E00E945B
:10098000590260E080E00E94420282E08093BD0153
:100990000E94CF01D1CF8230B9F480910101813022
:1009A00011F410926F0080910101813011F41092C6
:1009B0006F0080910101813059F7809100018130F1
:1009C00039F70093BD01E4CF833011F78091010125
:1009D000813011F410926F0080910101813011F487
:1009E00010926F0080910101813091F61091000109
:1009F000113071F6F092BA01E092B901D0928900FB
:100A0000C0928800109201010E945902D093BC014B
:100A1000C093BB01B0929900A0929800109200017F
:100A200082E00E94590260E081E00E94420210933D
:100A3000BD01AECFECE1F1E01382128288EE93E0CB
:100A4000A0E0B0E084839583A683B78386E091E03D
:100A50009183808385EC90E09587848784EC90E097
:100A60009787868780EC90E0918B808B81EC90E07B
:100A7000938B828B82EC90E0958B848B86EC90E05C
:100A8000978B868B118E128E138E148E0895EE0F17
:100A9000FF1F0024001C0BBE0790F691E02D099467
:040AA000F894FFCFF8
:100AA4000101000000006201CC00F900AF012A013D
:040AB40008011C0118
:00000001FF
